:100000000C942A000C9447000C9447000C94470071
:100010000C9447000C9447000C9447000C94470044
:100020000C9447000C9447000C9447000C94470034
:100030000C9447000C9447000C9447000C94470024
:100040000C9447000C9447000C9447000C94470014
:100050000C94470011241FBECFE5D8E0DEBFCDBF12
:1000600011E0A0E6B0E0E8EBF1E102C005900D92EE
:10007000AA37B107D9F711E0AAE7B1E001C01D9294
:10008000AE37B107E1F70E94BC040C94DA080C9477
:1000900000002F923F924F925F926F927F928F92C9
:1000A0009F92AF92BF92CF92DF92EF92FF920F9307
:1000B0001F93DF93CF9300D0CDB7DEB70E94DB0351
:1000C00085E00E94990180E690E00E94A704CC247C
:1000D000DD24EE24FF246894F2F800E010E00F2EF7
:1000E000FCE74F2EF0E05F2EF02D88249924662443
:1000F0007724689472F80F2EFDE62F2EF0E03F2E45
:10010000F02DCE010196A82EB92E13C00F5F1F4F00
:100110008A2D9B2D0E94CA018823D1F389819A815F
:10012000C816D90608F46C018E159F0508F0C701A2
:100130007C0183E0083E180748F3B6016E197F0979
:1001400080E090E00E94790720E030E040EA50E44F
:100150000E94070820E030EC4FE754E40E94E506D7
:1001600020E030E040E05FE30E94070824EF3DEF2D
:1001700044E35FE30E94070820E030E04AE754E4EC
:100180000E94070820E030E048EC52E40E94E506B7
:1001900020E030E04AE754E40E9407080E944D073F
:1001A0007B018C0181E060E00E94D20389EEE816B9
:1001B00083E0F80680E0080780E0180708F1C8012E
:1001C000B70128EE33E040E050E00E949D08CA01EC
:1001D000B9010E942704C1010E94A704C801B70108
:1001E00028EE33E040E050E00E949D080E94270482
:1001F0008FE690E00E94A7046401C301840198CFB8
:10020000C801B70128EE33E040E050E00E949D08AD
:100210000E942704C2010E94A7046401C301840153
:1002200087CFAF92BF92CF92DF92FF920F931F932F
:10023000DF93CF9300D0CDB7DEB7CC24DD24FF24ED
:100240008E010F5F1F4F0F2EF0E9AF2EF1E0BF2E92
:10025000F02DC8010E94CA018823D9F389819A81AF
:10026000C816D90608F46C01C5010197F1F7F3949B
:1002700083E68F1570F78C2D9D2D0F900F90CF91E9
:10028000DF911F910F91FF90DF90CF90BF90AF90C3
:100290000895AF92BF92CF92DF92EF92FF920F93A9
:1002A0001F93CF93DF930E94DB0382E00E949901AA
:1002B0008AE890E00E94A7040F2EF7E9CF2EF0E025
:1002C000DF2EF02D0F2EF8E8AF2EF3E1BF2EF02D2C
:1002D000C8ECD0E00E941101A0E0B0E0BC01CD016B
:1002E00028E833E140E050E00E946A087B018C017D
:1002F00081E060E00E94D203C801B7012FEF33E034
:1003000040E050E00E949D08CA01B9010E94270404
:10031000C6010E94A7049501CE010197F1F7215073
:100320003040D1F7D7CFE6E2F0E08081806480836F
:100330000895E7E2F0E090819F7B908390819F7722
:10034000908390819F7D908390819F7E9083908108
:10035000977F908390819B7F908390819D7F9083F6
:1003600090819E7F90839081892B8083E6E2F0E0EC
:1003700080818160808380818260808380818460CD
:1003800080838081877F80838081806880830E94D2
:1003900093010895DC0186B182958F7080FD02C0C3
:1003A00080E00895E4E2F0E0808191819370918390
:1003B0008083808191818D939C93E6E2F0E080813F
:1003C000806180830E94930181E008958F929F92C3
:1003D000AF92BF92CF92DF92EF92FF920F931F9353
:1003E000DF93CF9300D0CDB7DEB71A8219820E9477
:1003F000DB0380E10E94990180EA90E00E94A7045B
:100400007E010894E11CF11C0F2EFCEBCF2EF0E0D6
:10041000DF2EF02D0F2EFDEA8F2EF0E09F2EF02D17
:100420000F2EFFEAAF2EF0E0BF2EF02DC7010E9485
:10043000CA018823D9F369817A8180E090E00E9423
:10044000790720E030E44CE955E40E94070820E0F9
:1004500030EC4FE754E40E94E5069B01AC010E949A
:1004600081060E944D078B0181E060E00E94D2036B
:1004700083E0093E1807D8F0C80168EE73E00E94D7
:10048000890880E090E00E942704C4010E94A7042C
:10049000C80168EE73E00E948908A0E0B0E0BC01EA
:1004A000CD010E942704C5010E94A704BFCFB80157
:1004B00080E090E00E942704C6010E94A704B6CF06
:1004C0008F929F92AF92BF92CF92DF92EF92FF9264
:1004D0000F931F93DF93CF9300D0CDB7DEB71A826F
:1004E00019820E94DB0383E00E9499018AEC90E06C
:1004F0000E94A7047E010894E11CF11C0F2EF6EE69
:10050000CF2EF0E0DF2EF02D0F2EF4EDAF2EF0E029
:10051000BF2EF02D0F2EF6ED8F2EF0E09F2EF02D3A
:10052000C7010E94CA018823D9F369817A8180E0DA
:1005300090E00E94790720E030E040EA50E40E9419
:10054000070820E030EC4FE754E40E94E5062FE274
:100550003AEB48E65FE30E94E50620E030E44CE138
:1005600056E40E9407080E944D078B0181E060E07D
:100570000E94D20383E0093E1807D8F0C80168EE54
:1005800073E00E94890880E090E00E942704C50182
:100590000E94A704C80168EE73E00E948908A0E0E9
:1005A000B0E0BC01CD010E942704C4010E94A70451
:1005B000B7CFB80180E090E00E942704C6010E94F6
:1005C000A704AECF813049F0813028F0823039F075
:1005D000833041F406C06ABB089567BB089564BBCD
:1005E000089561BB0895813049F0813028F0823050
:1005F00039F0833041F406C06BBB089568BB0895A1
:1006000065BB089562BB0895813051F0813030F0B0
:10061000823041F0833041F080E0089589B308953D
:1006200086B3089583B3089580B308951F93162F5A
:100630000E94040390E002C0959587951A95E2F711
:1006400081701F910895813049F1813038F08230F6
:1006500009F444C0833009F07EC05FC0413069F4C2
:10066000EBE3F0E0208181E090E002C0880F991F69
:100670006A95E2F7282B20830895442309F06BC084
:10068000EBE3F0E0208181E090E002C0880F991F49
:100690006A95E2F78095822380830895413069F45A
:1006A000E8E3F0E0208181E090E002C0880F991F2C
:1006B0006A95E2F7282B20830895442309F04BC064
:1006C000E8E3F0E0208181E090E002C0880F991F0C
:1006D0006A95E2F78095822380830895413069F41A
:1006E000E5E3F0E0208181E090E002C0880F991FEF
:1006F0006A95E2F7282B20830895442361F5E5E30A
:10070000F0E0208181E090E002C0880F991F6A9597
:10071000E2F78095822380830895413069F4E2E313
:10072000F0E0208181E090E002C0880F991F6A9577
:10073000E2F7282B20830895442369F4E2E3F0E0F4
:10074000208181E090E002C0880F991F6A95E2F74E
:1007500080958223808308950F931F93182F82E042
:1007600065E040E00E94230382E066E040E00E94F2
:10077000230383E0612F0E94F30282E067E041E0FF
:100780000E9423030AEF10E0C8010197F1F782E00D
:1007900067E040E00E942303C8010197F1F71F9131
:1007A0000F91089560588295880F880F807C860F7E
:1007B0000E94AC0308950F931F9383E06FEF0E9494
:1007C000E20282E06FEF0E94E20284ED90E3019783
:1007D000F1F788E30E94AC030AEF10E0C80101972B
:1007E000F1F78CE00E94AC03C8010197F1F781E0BA
:1007F0000E94AC0384EF91E00197F1F71F910F91F4
:1008000008950F931F93182F82E065E041E00E9446
:10081000230382E066E040E00E94230383E0612F2F
:100820000E94F30282E067E041E00E9423030AEFA6
:1008300010E0C8010197F1F782E067E040E00E9414
:100840002303C8010197F1F71F910F910895AF920B
:10085000BF92CF92DF92EF92FF920F931F935B01B3
:100860006C01611571058105910521F480E30E94F9
:10087000010464C099232CF0EE24FF248701E39443
:1008800012C08DE20E940104D094C094B094A09450
:10089000A11CB11CC11CD11CA114B104C104D10400
:1008A00009F44CC0E9CFC801B7012AE030E040E0CC
:1008B00050E00E946A087B018C01C601B5010E94CC
:1008C000BF08E60EF71E081F191FC601B5012AE072
:1008D00030E040E050E00E94BF08822F932FA42F09
:1008E000B52F5C016D01A114B104C104D104D9F686
:1008F00081E0E816F1040105110501F1C801B70115
:100900002AE030E040E050E00E949D08862F805DA4
:100910000E940104C801B7012AE030E040E050E045
:100920000E949D08822F932FA42FB52F7C018D014B
:1009300081E0E816F1040105110501F71F910F91FF
:10094000FF90EF90DF90CF90BF90AF9008951F93EE
:10095000CF93DF93EC018881882351F010E00E944F
:1009600001041F5FFE01E10FF11D80818823B9F7AB
:10097000DF91CF911F9108950F931F930E94DB0386
:1009800086EF90E00E94A70481E060E00E94D2031D
:1009900086E091E00E94A70481E060E00E94E2020C
:1009A00010E000E001C0102F81E0612F0E941603CB
:1009B000882321F0612F6F5FB1F304C01F5F1530F2
:1009C00098F3F1CF633091F0643028F4613041F056
:1009D0006230A1F408C0643061F0653079F40CC075
:1009E0000E94AE050BC00E94600208C00E9449012F
:1009F00005C00E94E60102C00E94490080E090E02C
:100A00001F910F9108951F93182F823009F443C04E
:100A1000833030F4882359F0813009F089C021C037
:100A2000833009F452C0843009F082C068C082E08B
:100A300060E040E00E94230382E061E041E00E9428
:100A4000230382E062E041E00E94230382E063E04E
:100A500041E00E94230382E064E041E00E9423031E
:100A600067C082E060E041E00E94230382E061E031
:100A700040E00E94230382E062E041E00E94230301
:100A800082E063E041E00E94230382E064E041E011
:100A90000E9423034DC082E060E041E00E942303F6
:100AA00082E061E041E00E94230382E062E040E0F6
:100AB0000E94230382E063E041E00E94230382E07E
:100AC00064E041E00E94230333C082E060E041E043
:100AD0000E94230382E061E041E00E94230382E060
:100AE00062E041E00E94230382E063E040E00E9474
:100AF000230382E064E041E00E94230319C082E006
:100B000060E041E00E94230382E061E041E00E9456
:100B1000230382E062E041E00E94230382E063E07D
:100B200041E00E94230382E064E040E00E9423034E
:100B3000E12FF0E0EE0FFF1FEE0FFF1FEA59FE4F0F
:100B400080819181A281B38180937A0190937B010E
:100B5000A0937C01B0937D011F9108952F923F9245
:100B60004F925F926F927F929F92AF92BF92CF927D
:100B7000DF92EF92FF920F931F93DF93CF9300D0FA
:100B8000CDB7DEB782E06FEF0E94E2020E94DB0386
:100B900084E00E94990186E191E00E94A70484E02C
:100BA00090E00E9403059924689492F85E010894ED
:100BB000A11CB11C0F2EFFE42F2EF1E03F2EF02DD3
:100BC0000F2EF8E86F2EF3E17F2EF02D0F2EF9E1B6
:100BD000CF2EDD24F02D0F2EFFEF4F2EF3E05F2EF2
:100BE000F02DC5010E94CA018823D9F389819A8119
:100BF00022E08632920768F023E0291550F09394A2
:100C0000892D90E00E94030584ED90E30197F1F7B0
:100C1000E8CF8B35910560F4992051F09A94892D95
:100C200090E00E94030584ED90E30197F1F7D9CF9E
:100C300081E060E00E94D20309811A8183E00438D8
:100C4000180708F052C0B80180E090E020917A01C6
:100C500030917B0140917C0150917D010E946A0896
:100C60009201201B310B40E050E00E949D08822F32
:100C7000932FA42FB52F7C018D0129EEE21623E0DE
:100C8000F20620E0020720E0120700F1C801B701D8
:100C900028EE33E040E050E00E949D08CA01B9010F
:100CA0000E9427048EE291E00E94A704C801B701C8
:100CB00028EE33E040E050E00E949D080E942704A7
:100CC00080E391E00E94A704930113C0C801B7011B
:100CD00028EE33E040E050E00E949D080E94270487
:100CE00080E491E00E94A704EFCFC1010E94A70415
:100CF000EBCFC6010197F1F721503040D1F771CF0A
:100D00005058BB27AA270ED048C139D130F03ED168
:100D100020F031F49F3F11F41EF42EC10EF4E09543
:100D2000E7FB24C1E92F4AD180F3BA1762077307A2
:100D30008407950718F071F49EF562C10EF4E095F2
:100D40000B2EBA2FA02D0B01B90190010C01CA0185
:100D5000A0011124FF27591B99F0593F50F4503E30
:100D600068F11A16F040A22F232F342F4427585F22
:100D7000F3CF469537952795A795F0405395C9F73A
:100D80007EF41F16BA0B620B730B840BBAF09150F2
:100D9000A1F0FF0FBB1F661F771F881FC2F70EC091
:100DA000BA0F621F731F841F48F487957795679564
:100DB000B795F7959E3F08F0B3CF9395880F08F04D
:100DC0009927EE0F9795879508950CD0E6C0DED051
:100DD00040F0D5D030F021F45F3F19F0C7C0511179
:100DE00010C1CAC0EBD098F39923C9F35523B1F3CE
:100DF000951B550BBB27AA2762177307840738F08A
:100E00009F5F5F4F220F331F441FAA1FA9F333D0E8
:100E10000E2E3AF0E0E830D091505040E695001C9C
:100E2000CAF729D0FE2F27D0660F771F881FBB1F58
:100E3000261737074807AB07B0E809F0BB0B802D32
:100E4000BF01FF2793585F4F2AF09E3F510568F07E
:100E50008DC0D7C05F3FECF3983EDCF38695779565
:100E60006795B795F7959F5FC9F7880F911D969580
:100E7000879597F90895E1E0660F771F881FBB1FDC
:100E8000621773078407BA0720F0621B730B840B89
:100E9000BA0BEE1F88F7E095089598D088F09F5719
:100EA00090F0B92F9927B751A0F0D1F0660F771FB6
:100EB000881F991F1AF0BA95C9F712C0B13081F096
:100EC0009FD0B1E008959CC0672F782F8827B85F26
:100ED00039F0B93FCCF3869577956795B395D9F7F7
:100EE0003EF490958095709561957F4F8F4F9F4F01
:100EF0000895E89409C097FB3EF49095809570950D
:100F000061957F4F8F4F9F4F9923A9F0F92F96E955
:100F1000BB279395F695879577956795B795F111CA
:100F2000F8CFFAF4BB0F11F460FF1BC06F5F7F4F67
:100F30008F4F9F4F16C0882311F096E911C0772379
:100F400021F09EE8872F762F05C0662371F096E882
:100F5000862F70E060E02AF09A95660F771F881F51
:100F6000DAF7880F9695879597F9089597F99F670F
:100F700080E870E060E008959FEF80EC0895002421
:100F80000A941616170618060906089500240A94EE
:100F900012161306140605060895092E0394000C74
:100FA00011F4882352F0BB0F40F4BF2B11F460FF03
:100FB00004C06F5F7F4F8F4F9F4F089557FD90582C
:100FC000440F551F59F05F3F71F04795880F97FB0D
:100FD000991F61F09F3F79F08795089512161306C7
:100FE0001406551FF2CF4695F1DF08C016161706F6
:100FF0001806991FF1CF869571056105089408952B
:10100000E894BB2766277727CB0197F908950BD083
:10101000C4CFB5DF28F0BADF18F0952309F0A6CFCA
:10102000ABCF1124EECFCADFA0F3959FD1F3950F7C
:1010300050E0551F629FF001729FBB27F00DB11D5C
:10104000639FAA27F00DB11DAA1F649F6627B00DEC
:10105000A11D661F829F2227B00DA11D621F739FD5
:10106000B00DA11D621F839FA00D611D221F749FE3
:101070003327A00D611D231F849F600D211D822F2A
:10108000762F6A2F11249F5750408AF0E1F0882371
:101090004AF0EE0FFF1FBB1F661F771F881F91507E
:1010A0005040A9F79E3F510570F060CFAACF5F3F37
:1010B000ECF3983EDCF3869577956795B795F795B1
:1010C000E7959F5FC1F7FE2B880F911D9695879539
:1010D00097F90895629FD001739FF001829FE00D00
:1010E000F11D649FE00DF11D929FF00D839FF00DA7
:1010F000749FF00D659FF00D9927729FB00DE11D53
:10110000F91F639FB00DE11DF91FBD01CF0111242F
:101110000895AA1BBB1B51E107C0AA1FBB1FA6173E
:10112000B70710F0A61BB70B881F991F5A95A9F790
:1011300080959095BC01CD010895A1E21A2EAA1BBD
:10114000BB1BFD010DC0AA1FBB1FEE1FFF1FA21777
:10115000B307E407F50720F0A21BB30BE40BF50B74
:10116000661F771F881F991F1A9469F760957095FD
:10117000809590959B01AC01BD01CF01089597FB2F
:10118000092E05260ED057FD04D0D7DF0AD0001C4B
:1011900038F450954095309521953F4F4F4F5F4F14
:1011A0000895F6F790958095709561957F4F8F4FD4
:0811B0009F4F0895F894FFCF52
:1011B8002041432043757272656E743A002E0020F8
:1011C800412020202020202020202000206D4120A8
:1011D8002020202020202020200020414320566F5E
:1011E8006C746167653A002056202020202020007A
:1011F8002044432043757272656E743A002E0020B5
:10120800412020202020202020202000206D412067
:101218002020202020202020200020444320566F1A
:101228006C743A002E0020562020202020202020F8
:10123800202020202000206D562020202020202043
:10124800202020202000204F70656E204F484D310F
:101258002D444356320020414356332D44434134F4
:101268002D414341350020526573697374616E6383
:10127800653A2020202020202020202020002E0039
:10128800206B6F686D202020202020202020200047
:10129800206F686D20202020202020202020004959
:1012A8004E46494E495459202020202020202020F5
:1012B80020202020200064000000E8030000102700
:0A12C8000000A086010080841E00D3
:00000001FF
